1:
un_hexed_data = 'have fun staying poor'
data = 686176652066756e2073746179696e6720706f6f72

// data_with_len_and_op_equal 
script = 15686176652066756e2073746179696e6720706f6f7287
hashed_script = fb528f99064469fd19f1fc7f105a9fd324c71607

FORMAT:
_____________
scriptPubKey: <ophash160>, len(hashed_script), hashed_script, <opequal>

scriptSig: len(scriptSig), len(data), data, len(unhashed_original_script), unhashed_original_script
_____________

2:
scriptPubKey = a9 14 fb528f99064469fd19f1fc7f105a9fd324c71607 87

3:
scriptSig = 2e 15 686176652066756e2073746179696e6720706f6f72 17 15686176652066756e2073746179696e6720706f6f7287

4:
2NGA6VsFnfyQ5mQjem32pDuYPFnZGAGPkqJ

5:
bfaa9698e804b109ffbf652b572ad7a85eadb2232a1ac10e9a641387540bdb8f

6:
30820e244de5c2ea80fd255fd1931cf5d97c205ce7d3afe564d2343df8c0701e

7:

0200000001eaada93a6eab945e122e986ad480bc9b9b8b81879e9616246ec7956e58002e900100000000feffffff02102700000000000017a914fb528f99064469fd19f1fc7f105a9fd324c7160787e188000000000000160014336cdf2a109e35d7faec55998ab1fa846b5444fa00000000

8:

02000000
01
8fdb0b548713649a0ec11a2a23b2ad5ea8d72a572b65bfff09b104e89896aabf
00000000
00
ffffffff
01
401f000000000000
1600143cfbcee5066609b72b82a50600c726bfa9d55b6e
00000000

9:

02000000000101eaada93a6eab945e122e986ad480bc9b9b8b81879e9616246ec7956e58002e900100000000feffffff02102700000000000017a914fb528f99064469fd19f1fc7f105a9fd324c7160787e188000000000000160014336cdf2a109e35d7faec55998ab1fa846b5444fa0247304402200c4a46b407e178d3eab52b7b50b1ec87064357a137f4be35a100bcd0c220b18b0220081f61e11895ce7fb8761aaf89a8765c8b226e8b8f368ecc75300dd520c493bf012102d97ba460fcc0fc842c607911ad805d85585e43498f4cd33ee5071699f91334da00000000


10:

02000000
01
8fdb0b548713649a0ec11a2a23b2ad5ea8d72a572b65bfff09b104e89896aabf
00000000
2e15686176652066756e2073746179696e6720706f6f721715686176652066756e2073746179696e6720706f6f7287
ffffffff
01
401f000000000000
1600143cfbcee5066609b72b82a50600c726bfa9d55b6e
00000000

02000000018fdb0b548713649a0ec11a2a23b2ad5ea8d72a572b65bfff09b104e89896aabf000000002e15686176652066756e2073746179696e6720706f6f721715686176652066756e2073746179696e6720706f6f7287ffffffff01401f0000000000001600143cfbcee5066609b72b82a50600c726bfa9d55b6e00000000